:020000040800F2
:10000000F0060020A1010008D318000839160008E6
:10001000D1180008E10200089D220008000000003D
:10002000000000000000000000000000D51C0008D7
:10003000E302000800000000831A0008D71C000833
:10004000BB010008BB010008BB010008BB010008A0
:10005000BB010008BB010008BB010008BB01000890
:10006000BB010008BB010008BB010008BB01000880
:10007000BB010008BB010008BB010008BB01000870
:10008000BB010008BB010008BB010008BB01000860
:10009000BB010008BB010008BB010008BB01000850
:1000A000BB010008BB010008BB010008BB01000840
:1000B000BB0100080000000000000000BB010008B8
:1000C000BB010008BB010008BB010008BB01000820
:1000D000BB01000895220008BB010008BB01000815
:1000E000BB010008BB010008000000000000000088
:1000F0000000000000000000000000000000000000
:1001000000000000BB01000800000000BB01000867
:100110000000000000000000BB010008BB01000857
:10012000BB010008BB010008BB010008BB010008BF
:10013000BB010008000000000000000000000000FB
:10014000BB010008BB010008BB0100080000000063
:10015000BB010008BB010008BB010008BB0100088F
:10016000BB010008BB010008BB0100080000000043
:10017000BB010008BB0100080000000000000000F7
:10018000BB010008BB010008BB010008DFF80CD070
:1001900000F094F800480047E5220008F00600202F
:1001A0000648804706480047FEE7FEE7FEE7FEE711
:1001B000FEE7FEE7FEE7FEE7FEE7FEE7791D000843
:1001C0008D0100082DE9F05F0546002092469B4610
:1001D00088460646814640241BE02846414647465D
:1001E000224600F05AF853465A46C01A914110D39D
:1001F00011461846224600F041F82D1A67EB010817
:100200004F4622460120002100F038F817EB000984
:100210004E41201EA4F10104DFDC484631462A4647
:10022000434600F000B830BCBDE8C09FD2B201E048
:1002300000F8012B491EFBD270470022F6E710B5EB
:1002400013460A4604461946FFF7F0FF204610BD44
:1002500030B50B46014600202022012409E021FA96
:1002600002F59D4205D303FA02F5491B04FA02F593
:100270002844151EA2F10102F1DC30BD202A04DB66
:10028000203A00FA02F1002070479140C2F12003A9
:1002900020FA03F3194390407047202A04DB203AE8
:1002A00021FA02F00021704721FA02F3D040C2F196
:1002B000200291400843194670470000064C074D44
:1002C00006E0E06840F0010394E807009847103426
:1002D000AC42F6D3FFF75EFF202600084026000858
:1002E000FEE77047EFF3108072B6FEE7B0B590F806
:1002F000251002291AD10168826BD0E910340D68EB
:1003000025F00E050D600D6825F001050D6004F067
:100310001C01012404FA01F15960002180F8241025
:1003200080F825402AB19047002102E00421C163F2
:1003300001210846B0BD0000B0B5044600F0F8F851
:1003400005469948611C007818BF044400F0F0F895
:10035000401BA042FAD3B0BD0D49002209684A6291
:100360000A6842F001020A604A6A8242FCD3086AC3
:1003700041F21112104200D07047086A40F2444224
:100380001042F9D1086820F001000860704700BFF2
:10039000140000202DE9F84F594A4FF007094FF09B
:1003A000000B4FF0010A4FF0000C904200F1384270
:1003B00008BF4FF004094FEAB223042B38BF4FEABD
:1003C000B22900220D6835FA02F408BF00F0A2B885
:1003D0000AFA02F415EA040800F085804F68122F2B
:1003E00000F287800AFA07F515F0061F00F08180F9
:1003F0000323D0F808E0CE6803FA0CF52EEA0503D3
:1004000006FA0CF66FEA050E5500334383603B098C
:100410004668934026EA040423434360C3688E6819
:1004200003EA0E03AE403343C36047F01003122BC0
:1004300011D10BF01C030F2404FA03F66FF0030430
:1004400004EA520707443C6AB4430E6906FA03F310
:1004500023433B624F68036807F00304AC4003EAA0
:100460000E0323430360FB003DD5284C254F22F0AB
:10047000030523683D4443F00103236023680F24F0
:1004800003F0010300930BF00C03009E9C4009FA5B
:1004900003F31F4EB646AE5926EA0404234345F83B
:1004A0000E303B684D6843EA0804EE0358BF23EA68
:1004B00008043C60AE037B6843EA080458BF23EAA3
:1004C00008047C60EE02BB680F4E43EA080458BF84
:1004D00023EA0804BC60AD02336843EA080458BF4D
:1004E00023EA080434600BF1040B0CF1020C013216
:1004F00068E70323654603FA0CF46FEA040E8DE700
:1005000000100048000401400C040140601002404B
:1005100008FCFFFF18BCBDE8E08F0069084018BF69
:10052000012070471823002A08BF2823C1507047B4
:1005300005480068704700BF1B48034900780A68F7
:1005400010440860704700BFE802002080B5032017
:1005500000F06EF8002000F007F808B1012080BD1F
:1005600000F024F8002080BD70B50F4E04463078AE
:10057000B0B14FF47A71B1FBF0F04C490968B1FBAE
:10058000F0F000F05FFD01250F2C0AD848B94FF0BC
:10059000FF3021460022002500F02EF8746000E0B4
:1005A0000125284670BD00BF0000002082B00A4827
:1005B000816841F001018160816801F001010191D0
:1005C0000199016841F080510160006800F080509D
:1005D0000090009802B0704758100240002808D4DC
:1005E00000F01F010122400902FA01F1014A42F81C
:1005F0002010704700E100E070B5134B4FF0FF355D
:100600001B68C3F30223DC1E83F0070338BF0024FA
:1006100005FA04F6B243042B28BF042305FA03F3BA
:100620009943A1401143BDE8704001F039BE00BFBD
:1006300005494FF6FF030A681A4060F30A2203488F
:1006400010430860704700BF0CED00E00000FA05A1
:10065000AD49B0F5007F0A6802F4C0621CD1B2F562
:10066000007F21D00868012262F34A20322208600C
:10067000F548006850430E4AB0FBF2F00130421ECC
:100680004B69824203D213F480601046F7D1486967
:10069000400509D503207047B2F5806F04D0086883
:1006A000022262F34A200860002070470800002000
:1006B00040420F009448006800F4C060704700BFDB
:1006C0002DE9F843044640788E4F00071BD5606C37
:1006D00068B1B0F5400F11D0B0F5000F40F0FC80CC
:1006E000386840F4803038604FF4000006E0201D88
:1006F000002101F0C7F9814638B9606CF96F21F427
:1007000040010843F8674FF00009A078800750D5F2
:10071000F86C10F0805808D1F86C40F08050F86404
:10072000F86C00F0805000900098774D286840F4F5
:1007300080702860FFF7FCFE06462868C00507D4D5
:10074000FFF7F6FE801B0228F7D94FF0030929E0D6
:10075000B9F1000F26D1D7F8840010F4407017D0FB
:10076000A16D884211D0D7F88400D7F8841041F4E5
:10077000803120F44070C7F88410D7F8841021F439
:100780008031C7F88410C7F88400C00740F0A78004
:10079000A06DD7F884104FF0000921F44071084390
:1007A000C7F88400B8F1000F03D1F86C20F0805036
:1007B000F8642068C10705D0216AFA6F22F00302AD
:1007C0001143F967810705D5616AFA6F22F00C02BF
:1007D0001143F967410705D5A16AFA6F22F030028B
:1007E0001143F967810605D5E16AFA6F22F4406288
:1007F0001143F967810505D5E16BFA6F22F44022B8
:100800001143F967410505D5216CFA6F22F44012B6
:100810001143F967410605D5216BFA6F22F4405266
:100820001143F967010605D5616BFA6F22F4404266
:100830001143F967C10505D5A16BFA6F22F4403267
:100840001143F967010313D5A16C01F08BF807D0B0
:10085000B1F1006F0CD1396841F48011396007E0C3
:10086000201D012101F00EF9002818BF81462068E3
:10087000410313D5E16C01F075F807D0B1F1006FB9
:100880000CD1396841F48011396007E0201D012145
:1008900001F0F8F8002818BF81462068410410D5FF
:1008A000216DFA6F22F040520A43B1F1805FFA677E
:1008B00007D1201D022101F0E5F8002818BF81466C
:1008C0002068000405D5606DF96F21F08041084370
:1008D000F8674846BDE8F8834FF0010915E7FFF7D0
:1008E00027FE064641F288354FF00309D7F8840009
:1008F00080073FF54DAFFFF71BFE801BA842F5D9DF
:1009000050E700BF0C100240007000402DE9F84392
:10091000002800F08580444B04468846186800F0A3
:10092000070088420AD2186820F0070040EA080051
:100930001860186800F00700404571D12068494EE2
:10094000C10736D0606840B102280BD003280ED111
:1009500056F8081C89010ED462E056F8081C890775
:1009600009D45DE056F8081C890304D458E056F811
:10097000081C490554D531689946354621F00301D4
:10098000084301F03AF8064641F288372946606884
:10099000296801F00C01B1EB800F07D0FFF7C8FD0B
:1009A000801BB842F2D90320BDE8F88320682E46A8
:1009B0004B46810705D5A168326822F0F002114349
:1009C0003160196801F0070141450AD9196821F021
:1009D000070141EA08011960196801F00701414562
:1009E0001ED1410705D5E168326822F4E062114367
:1009F0003160000706D52069316821F4605141EA71
:100A0000C000306000F032F83168084A01F013F895
:100A10001349086006480068BDE8F843FFF7A4BD25
:100A20000120BDE8F88300BF00200240C82500086F
:100A3000040000200A480B490B4A00680968C1F30A
:100A4000022100F0E7BF00BF08000020044805496C
:100A5000054A00680968C1F3C22100F0DBBF00BF8E
:100A60000800002008100240D825000810B52449CD
:100A70008A68C86812F00C0205D00C2A20D100F058
:100A8000030001281CD10868000703D4D1F89400A2
:100A9000000A01E0086800091C4B00F00F00002A62
:100AA00053F82030184618BF00200C2A21D1C868FE
:100AB00000F00300022809D0032808BF124B06E00B
:100AC000042A17D0082A17D10F4810BD0D4BC8684B
:100AD000CA68C9680224C2F30622C0F30210C1F337
:100AE00041615A43013004EB4101B2FBF0F0B0FB2D
:100AF000F1F010BD034810BD00200023D5E700BF72
:100B0000001002400024F40000127A00E0250008E2
:100B10002DE9F843002800F00582DB4E0446B0685A
:100B200000F00C08F06800F003072078C0061BD422
:100B30002078C00757D0B8F1080F4DD0B8F10C0F8E
:100B400008BF032F48D06068B0F5803F07D0B0F5EC
:100B5000A02F40F0EA81306840F480203060306897
:100B600040F480303060E9E1B8F1000F18D0B8F1FE
:100B70000C0F08BF012F13D03068A169002900F0C5
:100B8000508140F0010000F038FF054630688007D2
:100B900000F15681FFF7CCFC00F013FFF6D93DE2DF
:100BA0003068800703D5A069002800F0BB81206A67
:100BB000316809074EBF3168D6F89410090901F071
:100BC000F001884240F2F78000F0ECFF002840F08E
:100BD000A98100F083FE02E13068800303D56068DC
:100BE000002800F09F812078800728D5B8F1040FF5
:100BF00017D0B8F10C0F08BF022F12D03068E1688F
:100C0000002900F0A98140F4807000F0F6FE05464E
:100C1000306840050CD4FFF78BFC00F0D2FEF7D90A
:100C2000FCE13068400503D5E068002800F07A81D7
:100C30002069716821F0FE4141EA0060706020780F
:100C4000000755D42078400769D42078800600F149
:100C50009A80A06A002800F0E381022840F0F38027
:100C6000E16AF06800F003028A4240F00F81216BD4
:100C70006FF00F0202EB011100F070028A4240F0A7
:100C80000581616B00F4FE42B2EB012F40F0FE8063
:100C9000A16B00F07842B2EBC16F40F0F780E16BDE
:100CA000E54A02EA015100F4C002A1F500118A42AE
:100CB00040F0EC80216C4FF07E4200F0C06002EA10
:100CC000016101F17E41884240F0E080306880019E
:100CD00000F1A68100F03CFE04463068800100F17E
:100CE0009F81FFF725FC011B03200229F5D995E11F
:100CF000D6F894006169002900F0818040F001007D
:100D0000C6F89400FFF714FC0546D6F89400800757
:100D100098D4FFF70DFC401B0228F6D9FAE0B06D1D
:100D200010F0805908D1B06D40F08050B065B06DC2
:100D300000F0805000900098BE4F3868C0050FD476
:100D4000386840F480703860FFF7F2FB0546386879
:100D5000C00505D4FFF7ECFB00F033FEF7D95DE1E9
:100D6000A068012808D0052840F0B880D6F8900087
:100D700040F00400C6F89000D6F8900040F0010062
:100D8000C6F89000B8E0D6F89800616A002900F033
:100D9000938040F00100C6F89800FFF7C9FB0546B4
:100DA000D6F8980080073FF554AFFFF7C1FB00F07D
:100DB00008FEF5D932E1316841F00801316031684F
:100DC00021F0F00101433160B8F1000FE169726870
:100DD00022F47F4242EA0121716000F09E80FFF719
:100DE00045FEB168904A00F026FE904908609048A0
:100DF0000068FFF7B9FB002840F0108198E620F06A
:100E00000100C6F89400FFF793FB0546D6F894005E
:100E100080077FF517AFFFF78BFB00F0D2FDF5D908
:100E2000FCE020F0010000F0E8FD05463068800796
:100E30007FF57EAEFFF77CFB00F0C3FDF6D9EDE059
:100E400000F04CFD74E6B8F10C0F6BD0306820F068
:100E5000807030603068000103D4F06820F0030037
:100E6000F060F06876490840F060FFF761FB0446E7
:100E70003068800140F1D480FFF75AFB011B03204A
:100E80000329F5D3CAE000BF00100240B8F10C0FEF
:100E900048D03068400145D4306820F0807000F0C0
:100EA000ACFD05463068800140F18C80FFF740FBC7
:100EB00000F087FDF6D9B1E020F00100C6F89800F7
:100EC000FFF736FB0546D6F8980080077FF5C1AEE0
:100ED000FFF72EFB00F075FDF5D99FE0D6F89010D6
:100EE000002821F00101C6F89010D6F8901021F0EA
:100EF0000401C6F890103ED0FFF71AFB054641F2F8
:100F00008837D6F89000800745D4FFF711FB401BC7
:100F1000B842F6D90320BDE8F88300F043FE00286C
:100F20003FF45DAF0120BDE8F883316821F48031E2
:100F30003160316821F480213160A8B3FFF7F8FAFD
:100F40000546306880033FF54EAEFFF7F1FA411BCE
:100F500003206429F5D961E020F4807000F04DFD94
:100F60000546306840057FF56AAEFFF7E1FA00F00C
:100F700028FDF6D952E0FFF7DBFA054641F2883743
:100F8000D6F89000800706D5FFF7D2FA411B032060
:100F9000B942F5D942E0B9F1000F7FF456AEB06D19
:100FA00020F08050B06550E6FFF7C2FA0546306881
:100FB00080037FF518AEFFF7BBFA411B03206429BD
:100FC000F5D92BE004F12C036FF00F051B4F0FCB6D
:100FD00005EB0111F5683D4028430843E16B40EA09
:100FE0000220154A02EA01514FF07E42A1F500119C
:100FF0000843216C40EAC36002EA016101F17E41CD
:101000000843F06000F0A4FC04463068800107D477
:10101000FFF78EFA011B03200229F6D9BDE8F883F9
:101020000020BDE8F88300BFC825000808000020A4
:1010300004000020007000400000E0FF8C809D0153
:10104000FFFFEEFE411E0020B0EB116F01D001202A
:101050007047044AF023516003490B7007219060E8
:101060001160704710E000E023ED00E070B590F8EB
:101070003C300222012B26D080F83D200122134C67
:1010800080F83C20026855689368A24203D14E68FC
:1010900025F4700535430E6825F070053543B2F12F
:1010A000804F556004D00A4DAA4201D0A24204D11B
:1010B000896823F08003194391600022012180F8A0
:1010C0003C2080F83D10104670BD00BF002C014050
:1010D0000040014058B110B500F0B4FC03D100F05D
:1010E00087FC00F007F800F0C5FC00F016BC0120FA
:1010F0007047000081B00068B0F1804F09D1064808
:10110000016841F001010160006800F001000090F9
:10111000009801B0704700BF58100240B0B500F011
:1011200084FC1CD084F83D000120284D84F83C004C
:101130002068024652F8083F2B4013600B682BB121
:10114000102B03D0202B18BF302B09D1106820F0B2
:101150007000184340F00700106000F084FCB0BD40
:10116000402B0DD0502B15D0602B1DD0B3F5005F58
:1011700027D0702BF1D100F02EFC40F07700EBE788
:1011800000F06CFC226852F8080F40F0470020F095
:101190003000E1E700F062FC226852F8080F40F0EE
:1011A000570020F02000D7E74B68CA68194600F0C6
:1011B00050FE226852F8080F40F0670020F010003F
:1011C000CAE700F008FC40F48040C5E78800FEFF55
:1011D0007047704770B50446006840F60F03C26957
:1011E000016885681A425FD04B4B01EA030605F09F
:1011F0000103F6185CD0D50707D0CD0505D501252C
:101200000562E56F45F00105E567950706D52BB149
:1012100002250562E56F45F00405E567550706D52B
:101220002BB104250562E56F45F00205E56715075A
:1012300009D501F020055B1905D008230362E36F8F
:1012400043F00803E367130508D54B0106D54FF4B7
:1012500000630362E36F43F02003E367E36F002B57
:1012600059D0920606D5890604D5216E11B12046C3
:1012700088472068E16F806801F0280100F0400095
:10128000401843D0204600F07FFE20688168490660
:101290002FD500F0DCFB2CD020498163FFF726F826
:1012A000C8B3E06E816B2EE0930601D58B0625D482
:1012B000D30201D56B0214D4130601D50B061FD43B
:1012C000520628D5490626D5016821F04001016063
:1012D00000206066202060672046BDE8704000F076
:1012E0007DB94FF4801101622046BDE87040FFF7E0
:1012F0006FBF2046BDE87040FFF76BBF216E00E076
:10130000616E41B12046BDE8704008472046FFF7B6
:1013100060FF0020E06770BD20010004791F000815
:1013200010B540B10446406F08B900F04EFB00F024
:10133000E7FA012801D1012010BD606A08B100F070
:101340003DFB00F034FB21F02A01816000F067FBD7
:10135000BDE8104000F0E2BD10B586B0044601A81B
:101360001421FEF76AFF2068A84988422AD116484E
:10137000416941F480414161416901F4804100913A
:101380000099016841F001010160006800F001006E
:101390000090072005900320049000200390022075
:1013A00002904FF4C0600190009801A94FF0904066
:1013B000FEF7F0FF252003210022FFF71DF925206D
:1013C000FFF70CF906B010BD4C100240836F202BC4
:1013D00005D131B12AB190F87030012B03D102212F
:1013E0003CE001213AE0A0F85A2041650121A0F833
:1013F000582080F8701000210166816851B1B1F168
:10140000805F0BD0B1F5805F0CD1026922B940F248
:10141000FF120AE002693AB9FF2206E002691AB136
:101420003F2202E0002200E07F22A0F85C200022A0
:10143000C26722228267B1F5805F0268936843F039
:101440000103936001D1016951B1074B002103668B
:1014500080F87010106840F4907010600846704773
:10146000004BF3E7A51F0008D71F00080168674A73
:10147000914218BF7047644991F803220D2A01D0A8
:101480000A2A09D10122002381F80622B1F8042298
:101490000A4482F8033109E0B1F804320B4483F8BE
:1014A0000321B1F804220132A1F8042201F2032140
:1014B0000122FFF78BBF00BF2DE9F8430446406FC0
:1014C000202807D10E4641B1174632B194F870007A
:1014D000012805D10220BDE8F8830120BDE8F8838A
:1014E0004FF0000901201D46C4F87C9084F870007C
:1014F00021206067FFF71CF8A4F852708046A4F81A
:101500005070A068B0F5805F01D1206908B1002754
:1015100001E03746002684F87090B4F85200D0B14C
:101520002046802100224346009500F075FED0B988
:1015300026B116F8010B2168088506E037F8021B72
:10154000206800266FF35F210185B4F8520001384E
:10155000A4F85200E1E720464021002243460095CE
:1015600000F05AFE10B10320BDE8F8832020606728
:101570000020BDE8F8830000436F202B05D131B176
:101580002AB190F87030012B03D1022120E0012113
:101590001EE00023A0F85220C367C1640121A0F817
:1015A0005020436680F87010212141678168B1F5B1
:1015B000805F01D1016909B1074A00E0054A0021B5
:1015C000426680F870100068026842F08002026093
:1015D00008467047C5210008F121000810B50068D1
:1015E0000A4988420ED1084C94F8020150B9B4F867
:1015F000001107A000F008FF012084F8020100207C
:10160000A4F8000110BD00BFE00000200038014038
:101610000D0A0D0AB7A2CBCDCDEAB3C9A3ACD2D186
:10162000B7A2CBCDD7D6B7FBB8F6CAFDCEAAA3BA20
:1016300025640D0A00000000FEE70220FEF78CBEC4
:1016400080B500F0BBF84E48042101600221016022
:1016500080BD00BF2DE9F047494F804604204FF47C
:10166000003900244FF0020A0026A7F1180538605F
:10167000C7F80090072C12D8C7F800A0FFF7DDFFCD
:1016800028460421FEF749FFC7F80090002818BF3C
:10169000012040EA4606FFF7D0FF0134EAE7B8F13F
:1016A000000F02D000F006F801E000F039F8F0B2C7
:1016B000BDE8F087B0B5334D314C00F00BF900F0C8
:1016C00029F94FF400302060A84704202060284604
:1016D000BDE8B040004700BF2DE9F843284D294E32
:1016E0004FF40038044600274FF00209C5F8008087
:1016F000072F88BFBDE8F88360B2B0F1FF3F4FF01D
:101700000400C8BF4FF480202860B047B047C5F838
:101710000090B047C5F80080B04701376400E7E7A4
:10172000B0B5184D164C04202060A84700F0F2F820
:101730004FF4003020602846BDE8B040004700BFAD
:10174000B0B5104D0E4C04202060A84700F0E2F820
:1017500000F0C0F84FF4003020602846BDE8B040EB
:10176000004700BFB0B5074D054C00F0B3F800F0DE
:10177000D1F8042020602846BDE8B040004700BFF3
:10178000180800483B160008B0B5274C0220A0619D
:10179000FFF753FFFB2520460421FEF7BEFE28B1CC
:1017A000013DF8D1FFF7DEFF0120B0BD4FF400305E
:1017B000A061FFF742FF0020B0BD00BF70B586B04A
:1017C0000020194C012206250126059015480168C4
:1017D00041F004010160016801F0040100910099E9
:1017E000016841F080010160016801F08001009111
:1017F0000099016841F0010101600621006800F0D4
:101800000100009000982046FEF78CFE0220CDE9F2
:1018100003601120CDE9015001A92046FEF7BAFD71
:1018200006B070BD4C1002400008004810B588B0EA
:10183000174800214FF6FF724F234FF08044079165
:10184000CDE90511CDE90311CDE901118161C0E9AF
:101850000043C0E902120161FFF73CFC08B1FEF74A
:1018600041FD4FF480500490094804A9FFF756FC4D
:1018700008B1FEF737FD002003900190044801A94C
:10188000FFF7F4FB08B1FEF72DFD08B010BD00BF57
:101890001400002010B50C480C4C4FF4E13300212B
:1018A0000C22C0E90043C0E90211C0E90412C0E9FA
:1018B0000611C0E90811FFF733FD18B1BDE810406B
:1018C000FEF710BD10BD00BF6000002000380140D1
:1018D000FEE7FEE74FF4802020602847306840F0A4
:1018E00008003060D4E90701326822F0F0021143A9
:1018F0003160716821F47F4141EA002070607047D7
:10190000242060672068016821F001010160204601
:1019100000F07CBB022020602847012084F84800AA
:1019200084F83E0084F83F0084F8400084F84100C9
:1019300084F8420084F8430084F8440084F84500A9
:1019400084F8460084F8470084F83D00002010BD6C
:10195000306840F080703060F06840F08070F06077
:10196000FEF7E6BDFA6F22F040620A43B1F1806FE4
:10197000FA6770470A6822F490720A608A6822F057
:1019800001028A600021016620218167FFF76EBD98
:1019900021F4D0710160816821F001018160202073
:1019A00060677047088B40F0080008837047206824
:1019B000416821F49041416081687047204600F001
:1019C00059BA411B032002297047002084F8700097
:1019D0002046FFF7C1BCD1E90103C968184340EABA
:1019E0000120116821F47F4108431060106870479E
:1019F000002084F83C00204670473060FEF798BD18
:101A00000068016821F080010160016841F0400137
:101A100001607047515C01F01F01C84070470168C8
:101A200041F0010101602046704790F83C200446D7
:101A30000220012A7047C1F30311515C01F01F011C
:101A4000C8407047044690F83D0000287047816800
:101A500021F040018160E06E002870474B68CA6841
:101A6000194600F0E5B90020012184F83C0084F813
:101A70003D1070470220211D84F83D00206800F0D1
:101A8000A1B97047F8B5CD4F04460D46F8688007F8
:101A90000FD0F868216800F00300884244D1002884
:101AA00042D06068F968C1F30211013181421CD053
:101AB0003AE02068032807D0022832D0012833D129
:101AC0003968890706D42FE03968890302D4396858
:101AD000490329D561686FF00F0202EB0111FA6822
:101AE00022F0730210430843F860386820F08060E9
:101AF0003860FEF71DFD06463868000105D5FEF783
:101B000017FD801B0228F7D93DE0012D0ED0E5B965
:101B1000386923490840D4E9021240EA0120D1067D
:101B200020E039684905D5D40120F8BD1A48396943
:101B3000226900F1B4600840A16840EA0120174919
:101B400001EA0251A1F500110CE0386912496269FD
:101B50000840A16840EA01204FF07E4101EA02619D
:101B600001F17E4108433861386840F08060386098
:101B7000FEF7DEFC05463868000106D4FEF7D8FC07
:101B8000401B0228F7D90320F8BDA0693969084332
:101B900038610020F8BD00BFFF80FFF90000E0FFC2
:101BA000FF80FF07BCB51E4D04462868C0000FD457
:101BB000286840F080502860286800F0805001902C
:101BC0000198FEF777FD296821F08051296001E036
:101BD000FEF770FDB0F5007F06D1812C08D30120FF
:101BE000A02C88BF02200DE0802C03D9032009E03F
:101BF000002007E0A4F17000B0FA80F04009802CCA
:101C000008BF022007490A6822F0070202440A605E
:101C1000096801F00701081A18BF0120BCBD00BF08
:101C20005810024000200240B0B5FFF709FDFFF751
:101C300087FD264CB020A047254DA8472020A0476F
:101C4000A8470320A047A847FFF78CFD4FF47A7000
:101C5000BDE8B040FEF770BB70B5FFF771FDB12075
:101C6000FFF73AFDFFF790FD0B4E0120B047044609
:101C70000120B04705460120B047280240EA04444D
:101C80000120B04704440020B04740EA0424FFF795
:101C900069FD204670BD00BF55160008F8B50C461A
:101CA0000546FFF74DFD094EB020B047084FB84735
:101CB0002846B047B8472046B047B847FFF752FD1F
:101CC0006420BDE8F840FEF737BB00BFD916000816
:101CD000891700087047FEF72FBCB0B5AEB01DAC39
:101CE000202104F10800FEF7A8FA18A814211425F1
:101CF000FEF7A3FA01A85C21FEF79FFA0220072154
:101D0000CDE92C00CDE92A51012103252991CDE906
:101D100027054FF48030CDE91D102046FEF7F8FE70
:101D200018B1EFF3108072B6FEE700240F200421F3
:101D3000CDE91B44CDE91954189018A8FEF7E6FD2B
:101D400018B1EFF3108072B6FEE7012009940190FC
:101D500001A8FEF7B5FC18B1EFF3108072B6FEE7EC
:101D60004FF40070FEF774FC18B1EFF3108072B6F8
:101D7000FEE72EB0B0BD000010B50F48104CD0F8F3
:101D8000801041F47001C0F880100C490A6842F0DC
:101D900001020A6000228A600B6823400B604FF446
:101DA0008053CB600B6823F480230B608A614FF073
:101DB0000061016010BD00BF08ED00E000100240AE
:101DC000FFFFF6EA70B5174A0368904218BFB0F1FA
:101DD000804F05D14C6823F070032343904208D014
:101DE000B0F1804F05D0104CA04202D00F4CA04261
:101DF00003D1CC6823F4407323434E6923F080035E
:101E00000C688D68334390420360C562846204D0DD
:101E1000054B40F480629A4201D1096901630121B6
:101E2000416170BD002C0140004401400040014070
:101E300010B5036A046A24F001040462846924F082
:101E4000F00444EA0212826123F00A0211430162A3
:101E500010BD036A23F010030362836923F4704307
:101E600043EA0232036A826123F0A00242EA0111CE
:101E70000162704710B5416ACA0706D00268836ADA
:101E8000546824F40034234353608A0706D502685B
:101E9000C36A546824F48034234353604A0706D548
:101EA0000268036B546824F48024234353600A07B8
:101EB00006D50268436B546824F4004423435360FE
:101EC000CA0606D50268836B946824F480542343C1
:101ED00093608A0606D50268C36B946824F40054A4
:101EE000234393604A060FD50268036C546824F4B8
:101EF00080141C43B3F5801F546005D1436C5468B3
:101F000024F4C00423435360090606D50168806C9D
:101F10004A6822F400221043486010BDBCB5044654
:101F20000020E067FEF704FB05462068016809070A
:101F30000BD56FF07E404FF4001100222B4600902D
:101F4000204600F069F970B92068006840070CD598
:101F50006FF07E404FF4800100222B460090204617
:101F600000F05AF908B10320BCBD202100206167B0
:101F700084F87000A167BCBD806A0021A0F85A10E7
:101F8000A0F85210FFF725B901680A6822F4907290
:101F90000A608A6822F001028A600021016620211D
:101FA000816770470168826F222A10D1B0F85C20E7
:101FB0008B8C1A40436D23F8022BB0F85A20013A5B
:101FC000A0F85A204365B0F85A2012B17047FFF7C5
:101FD000E9BCFFF7CFBC0168826F222A11D1B0F8AB
:101FE0005C20898C1140426D1170B0F85A10013993
:101FF000A0F85A10416D01314165B0F85A1011B185
:102000007047FFF7CFBC0168FFF7B4BC70B501683B
:10201000044680685E4ED4E903320D681043E269DD
:10202000354066693043104328430860486820F40F
:1020300040501843574B4860A06999421CBF256A1D
:1020400028438D6825F430652843886052488142D2
:102050000BD0524881420CD099420ED05048814258
:1020600041D1504851A500680BE04E4800688008F7
:1020700006E04C480068000902E04A480068800A0F
:10208000494D00F0030055F820504C48994210D0BB
:102090000121B2F5004F1AD1082D00F27480DFE85B
:1020A00005F005454E72487272724C00FEF7C2FC94
:1020B00041E00121082D00F26680DFE805F00564AB
:1020C0001C64166464641A00FEF7B4FC0FE0082D6B
:1020D00059D8DFE805F005424B5845585858490093
:1020E000FEF7A8FC3EE01025CFE7FEF7BFFC10B9D5
:1020F00046E04FF40040626802EB4201884241D35F
:10210000B0EB023F3ED800215FEA51014FEA3203B3
:1021100013EB002341EB106118460023FEF752F841
:10212000274AA0F54071914228D92BE0FEF78EFC9A
:1021300001E0FEF79BFC10B922E04FF4004061681B
:102140004A0802EB4000B0FBF1F04FF6F07101409D
:1021500018D0C0F34200084310E0FEF777FC01E01E
:10216000FEF784FC10B90BE04FF40040616800EB0F
:102170005100B0FBF1F080B2102803D32168C86091
:10218000002100E001210020C4E91800084670BDCC
:10219000F369FFEF00800040004400400048004029
:1021A000003801408810024010260008010000009D
:1021B0000400000002000000080000000024F400F9
:1021C000FFFC0F00416F21290FD1B0F8521069B107
:1021D000C26C016832F8023B6FF35F230B85C26467
:1021E000B0F852100139A0F852107047FFF708BC40
:1021F000416F21290DD1B0F8521059B1C26C01685C
:1022000012F8013B0B85C264B0F852100139A0F8F6
:1022100052107047FFF7F4BB2DE9F843DDF820902A
:1022200004460068984616460F4609F10105C16943
:102230003940C91BB1FA81F14909B1421BD1002DC6
:10224000F5D0FEF775F9A0EB0802206801684A4551
:1022500014D8B9F1000F11D04907E8D5C1690905B3
:10226000E5D54FF4006101620168FFF791FBA067BB
:1022700004F17C0006E00020BDE8F883FFF788FB4E
:1022800004F17800002184F87010202101600320FF
:10229000BDE8F8834448FEF79DBF00BFFEE700009D
:1022A00010B5074C00F00F03B0F1FF3F034A234481
:1022B000C8BF83180801187010BD00BF00E400E01B
:1022C00014ED00E01CB5384C019001A901224FF635
:1022D000FF732046FFF7F0F82068C1690906FCD5B6
:1022E00001981CBDFEF732F9FFF7F7FCFFF766FA1D
:1022F000FFF7D0FAFFF79AFA2A4E2B48012206F28E
:102300000321FFF763F818B1EFF3108072B6FEE710
:10231000FFF78AFC00204FF4C87137A40FE020209B
:102320000821FFF7BBFCFFF797FC0546204600F0AD
:1023300039F94FF4FA70FDF7FFFFA8B2290CB1F597
:10234000C87F08BF0028EAD096F80602012815D1F8
:10235000B6F8041215A000F057F8B6F80422124897
:10236000002406F2031186F80241A6F80021FFF7C7
:1023700003F990B986F80642A6F804422020082105
:10238000FFF78CFCFFF768FC010C82B213A000F091
:102390003BF8C820FDF7D0FFD6E7EFF3108072B608
:1023A000FEE700BFE0000020600000200D0A0D0ADB
:1023B000BDD3CAD5B5BDB5C4D7D6B7FBB8F6CAFD2F
:1023C000CEAAA3BA25640D0ABDD3CAD5B5BDB5C47E
:1023D000CAFDBEDDCEAAA3BA0D0A00000D0A434F06
:1023E000323A256470706D0D0A54564F433A256495
:1023F0007070640D0A000000D5FDD4DABCECB2E2C6
:10240000D6D02E2E2E0D00000FB4054B10B503A90B
:10241000044A029800F018F810BC5DF814FB0000A4
:10242000C52200081000002002E008C8121F08C1E1
:10243000002AFAD170477047002001E001C1121F45
:10244000002AFBD1704700002DE9FF4F89B09B4661
:102450000446002506E025280BD05A460B999047E4
:10246000641C6D1C20780028F5D10DB0284600F0C2
:1024700095B80027B8460122474900E0074314F801
:10248000013F203B02FA03F00842F7D120782E28C2
:1024900019D114F8010F47F004072A280ED06FF065
:1024A0002F022078A0F1300109290CD808EB88010F
:1024B00002EB410100EB0108641CF2E70A98641C7E
:1024C00050F8048B0A9020780028CED0642808D0D9
:1024D000692806D075281ED05A460B9990476D1C66
:1024E00058E00A994FF00A0901C90A91002802DA56
:1024F00040422D2102E0390504D52B218DF8201012
:10250000012103E0F90704D02021F7E78A4608AE4D
:102510000DE00021FAE70A994FF00A0901C90A9172
:10252000F7E74946FDF794FE303106F8011D002813
:10253000F7D1ADEB060000F12009780701D44FF088
:102540000108C84502DDA8EB090000E00020804634
:10255000002706E008A85A46C05D0B9990476D1CFD
:102560007F1C5745F6DB04E030205A460B99904714
:102570006D1CB8F10001A8F10108F5DC05E016F8C2
:10258000010B5A460B9990476D1CB9F10001A9F156
:102590000109F4DC641C65E70928010030BCBDE8D2
:1025A000C08F000010B5044601E0FFF78BFE14F861
:1025B000010B04490028F8D1BDE810400A20FFF7BC
:1025C00081BE00001000002000000000000000009C
:1025D00001020304060708090000000001020304C9
:1025E000A0860100400D0300801A060000350C0093
:1025F00040420F0080841E0000093D0000127A0056
:102600000024F40000366E010048E801006CDC0292
:1026100000000000040000000200000008000000AC
:1026200040260008000000201000000028240008B8
:102630005026000810000020E006000038240008A2
:10264000010000001000000000093D000000000033
:040000050800018D61
:00000001FF
